:2000000000802020AB390000D30A0000D30A00000000000000000000000000000000000082
:2000200000000000000000000000000081370000000000000000000051310000E934000069
:20004000D30A0000D30A0000D30A0000D30A0000D30A0000D30A0000D30A0000D30A0000B8
:2000600000000000D30A0000D30A00000000000000000000D30A0000D30A0000D30A00002F
:20008000D30A0000D30A0000D30A0000D30A0000D30A0000D30A0000000000000000000032
:2000A000D30A0000D30A00000000000000000000D30A000000000000D30A0000D30A0000EF
:2000C00080B592B0119000200D900B90119800282AD0FFE711980821C943884220D8FFE779
:2000E00011980830119011A800784007002815D0FFE71199072001400820401A0C9011983A
:200100000C99C943884205D8FFE70C9911984018119002E000201190FFE700E0FFE702E029
:2001200000201190FFE700E0FFE703F009FC82480068002803D1FFE701F0EEFE00E0FFE7A3
:2001400011A8C0780006002800D5E5E01198002800D1DFE0119879490968884200D9D9E04D
:2001600077480F900068109010990020754A91420A900FD3FFE710997248734A8218012081
:20018000002308939142099001D90898099009980A90FFE70A98C007002803D1FFE772B68E
:2001A000FFE7FEE7FFE710984168119A00209142079006D2FFE710980068411E884107907B
:2001C000FFE70798C007002824D0FFE710980F90109800681090109900205A4A9142069004
:2001E0000FD3FFE710995748574A82180120002304939142059001D9049805900598069033
:20020000FFE70698C007002803D1FFE772B6FFE7FEE7C8E7109848490968884278D0FFE76D
:200220000F98006808300D900D990020454A914203900FD3FFE70D994248434A82180120DF
:20024000002301939142029001D90198029002980390FFE70398C007002803D1FFE772B6FE
:20026000FFE7FEE7109800680F990860109840681199884203D2FFE772B6FFE7FEE7109879
:2002800040681199401A11281ED3FFE71098119940180E900EA800784007002803D0FFE704
:2002A00072B6FFE7FEE7109840681199401A0E9948601198109948600F9800680E99086090
:2002C0000E980F99086000E0FFE7109842681B480168891A016000681C490968884205D2A1
:2002E000FFE7164800681949086000E0FFE7109840680B90109948680122D2071043486087
:2003000010990020086012490868401C086000E0FFE700E0FFE700E0FFE700F023F90DA80A
:2003200000784007002803D0FFE772B6FFE7FEE70D9812B080BDC04654132020781320200E
:200340001C13202000002020FF0B0000801320208C13202010B588B000200590764800685A
:20036000002800D0DFE076490868401C049004980860049800281AD1FFE7FFE77148006807
:200380000068002803D0FFE772B6FFE7FEE76D4A106803906C4908681060039808606B4913
:2003A0000868401C086003F0B7F8FFE700E0FFE7049867490968884200D2AAE0FFE7614849
:2003C00000680068002805D1FFE761490020C04308609DE05B480068C068C0680790079826
:2003E0004068069004980699884204D2FFE70698574908608CE0FFE7FFE707984069029046
:200400000799C8688968886007998868C9684860029840680799091D884205D1FFE707989D
:20042000C06802994860FFE707990020486102990868401E0860FFE70798806A002821D0A9
:20044000FFE7FFE70798806A01900799086AC96988600799C869096A4860019840680799BD
:200460001831884205D1FFE70798006A01994860FFE707990020886201990868401E086002
:20048000FFE700E0FFE7FFE7FFE70798C06A31490968884205D9FFE70798C06A2D490860FB
:2004A000FFE7FFE7FFE70798C16A14221046484329490818406800900098079B9860009815
:2004C0008068079BD8600798001D009B9B6858600798001D009B9860079BDC6A1046604318
:2004E000081858610798C06A42438858401C8850FFE7FFE70798C06A18490968C96A88425D
:2005000003D9FFE70120059000E0FFE7FFE756E7FFE713480068002803D0FFE7012005903A
:2005200000E0FFE704E005490868401C0860FFE7059808B010BDC0466C13202094132020DB
:200540009C132020281320202C132020881320208413202074132020001020205013202046
:20056000A813202010B588B0002000900790069003F096F90098059070480068002803D1DB
:20058000FFE772B6FFE7FEE76C480168491E01600068002800D0CAE069480068002800D181
:2005A000C4E0FFE767480068002800D188E06548C068C0680790FFE70798806A0490079902
:2005C000086AC96988600799C869096A48600498406807991831884205D1FFE70798006AE7
:2005E00004994860FFE707990020886204990868401E0860FFE7FFE707984069039007990C
:20060000C8688968886007998868C9684860039840680799091D884205D1FFE70798C06812
:2006200003994860FFE707990020486103990868401E0860FFE7FFE7FFE70798C06A45494C
:200640000968884205D9FFE70798C06A41490860FFE7FFE7FFE70798C16A1422104648434D
:200660003D490818406802900298079B986002988068079BD8600798001D029B9B685860F6
:200680000798001D029B9860079BDC6A10466043081858610798C06A42438858401C8850ED
:2006A000FFE7FFE70798C06A29490968C96A884204D9FFE725490120086000E0FFE771E7ED
:2006C0000798002803D0FFE702F026FFFFE71E48006801900198002817D0FFE7FFE7FFF7D4
:2006E00039FE002804D0FFE718490120086000E0FFE70198401E0190FFE701980028EED143
:20070000FFE711490020086000E0FFE70F480068002809D0FFE701200690FFE70C4800684C
:2007200003F0CAF8FFE700E0FFE7FFE700E0FFE702F094FF069808B010BDC0466C1320203F
:2007400064132020E012202094132020A813202050132020741320200010202080B58EB0A1
:200760000C900B910A920993002008900C9804900498002803D1FFE772B6FFE7FEE70B9904
:2007800000200029039006D1FFE70498006C411E88410390FFE70398C007002803D0FFE7D4
:2007A00072B6FFE7FEE7099900200229029007D1FFE70498C06B401E411E88410290FFE744
:2007C0000298C007002803D0FFE772B6FFE7FEE702F0BAFD014600200029019005D1FFE75E
:2007E0000A98411E88410190FFE70198C007002803D0FFE772B6FFE7FEE7FFE703F050F863
:200800000498806B0499C96B884204D3FFE70998022825D1FFE704980B99099A01F0F6F98F
:2008200007900498406A00280CD0FFE70498243000F020FA002803D0FFE703F03DF800E00E
:20084000FFE708E00798002803D0FFE703F034F800E0FFE7FFE702F001FF01200D9063E08C
:200860000A98002805D1FFE702F0F8FE00200D905AE00898002806D1FFE705A802F0BAFF36
:200880000120089000E0FFE7FFE7FFE702F0E6FE03F056F803F004F8049844214056401C14
:2008A000002805D1FFE70499442200208854FFE7049845214056401C002805D1FFE70499FA
:2008C000452200208854FFE702F0C8FE05A80AA901F0C8FA00281ED1FFE7049802F04CFE2F
:2008E000002811D0FFE7049810300A9902F07EFD049801F05BFAFFF735FE002803D1FFE730
:2009000002F0DAFFFFE705E0049801F04FFAFFF729FEFFE707E0049801F048FAFFF722FE9C
:2009200000200D9000E069E70D980EB080BD80B58CB00A9009910892002007900A980490FE
:200940000498002803D1FFE772B6FFE7FEE7099900200029029006D1FFE70498006C411E85
:2009600088410290FFE70298C007002803D0FFE772B6FFE7FEE702F0E7FC0146002000299C
:20098000019005D1FFE70898411E88410190FFE70198C007002803D0FFE772B6FFE7FEE797
:2009A000FFE702F07DFF0498806B0390039800281FD0FFE70498099902F0ECFB0398401E21
:2009C000049988630498006900280CD0FFE70498103000F04FF9002803D0FFE702F06CFF4E
:2009E00000E0FFE700E0FFE702F038FE01200B906CE00898002805D1FFE702F02FFE002078
:200A00000B9063E00798002806D1FFE705A802F0F1FE0120079000E0FFE7FFE7FFE702F0AA
:200A20001DFE02F08DFF02F03BFF049844214056401C002805D1FFE704994422002088541B
:200A4000FFE7049845214056401C002805D1FFE70499452200208854FFE702F0FFFD05A857
:200A600008A901F0FFF900281FD1FFE7049802F00BFE002812D0FFE704982430089902F0D4
:200A8000B5FC049801F092F9FFF76CFD002803D1FFE702F011FF00E0FFE705E0049801F012
:200AA00085F9FFF75FFDFFE70FE0049801F07EF9FFF758FD049802F0E7FD002803D0FFE7EF
:200AC00000200B9002E0FFE7FFE76AE70B980CB080BDFEE780B588B0079007985E49096820
:200AE000884204D9FFE75C4800680790FFE772B6BFF34F8FBFF36F8F01F0F6FD002802D199
:200B0000FFE762B6A6E05549062008605448006803900398002804D1FFE75248006803907B
:200B2000FFE703984F490A680799491E5143401806904D480068400100280AD5FFE7012055
:200B4000400649490860474801680698401A0690FFE7069845490968884206D9FFE7434832
:200B600001680698401A0690FFE70698404908603B4900200860394908680122104308602D
:200B8000079802900298002806D0FFE7BFF34F8F30BFBFF36F8FFFE762B6BFF34F8FBFF337
:200BA0006F8F72B6BFF34F8FBFF36F8F2B48062101600068C003002821D5FFE729480068CC
:200BC000069A27490968891A4018401E0190019826490968884206D9FFE70198214909682E
:200BE000884205D9FFE71F480068401E0190FFE701981F4908600798401E05901AE018486E
:200C000000680390079A1749009108685043039A801A04900498096802F000FB01460098A0
:200C200005910599491C006848430499401A10490860FFE70A4900200860084907200860CF
:200C400008480068401E0A490860059801F0CAFC62B6FFE708B080BD7C13202010E000E0DD
:200C600018E000E06013202004ED00E05C13202014E000E010B588B007900798C068C06812
:200C800006900698002803D1FFE772B6FFE7FEE7FFE70698806A04900699086AC96988601E
:200CA0000699C869096A48600498406806991831884205D1FFE70698006A04994860FFE764
:200CC00006990020886204990868401E0860FFE74648006800285AD1FFE7FFE70698406956
:200CE00003900699C8688968886006998868C9684860039840680699091D884205D1FFE7C3
:200D00000698C06803994860FFE706990020486103990868401E0860FFE7FFE7FFE7069859
:200D2000C06A34490968884205D9FFE70698C06A30490860FFE7FFE7FFE70698C16A1422B3
:200D4000104648432C490818406802900298069B986002988068069BD8600698001D029BFD
:200D60009B6858600698001D029B9860069BDC6A10466043081858610698C06A4243885882
:200D8000401C8850FFE7FFE702F0C6FB1AE0FFE71749486801900198069AD0610198806834
:200DA000069A106206981830019A9268506006981830019A9060069881620868401C0860D0
:200DC000FFE7FFE70698C06A0C490968C96A884205D9FFE7012005900949086002E0002086
:200DE0000590FFE7059808B010BDC0466C132020E0122020741320200010202050132020A5
:200E0000A813202080B588B00020079006900590FFE75248006805A90022FFF788FD00282D
:200E200000D199E00598002800D594E0079804900498002800D18CE004984069002805D0E4
:200E4000FFE70498001D02F0F3F800E0FFE703A802F004FA02900598401E0190082876D819
:200E60000198810001A040588746C046910E0000910E0000E90E0000F70E0000290F0000DA
:200E8000910E0000910E0000E90E0000F70E000004992822885C0123184388540498069BB5
:200EA00081695918029A01F05BFB00281AD0FFE704982821405C4007002808D5FFE70498AD
:200EC000069982698918029A02F05AFA06E004992822885CFE2318408854FFE70498016A12
:200EE000884700E0FFE733E004992822885CFE23184088542CE004992822885C01231843D4
:200F0000885406980499886104988069002803D1FFE772B6FFE7FEE70498029B81695918E3
:200F20001A4601F01DFB13E004982821405C8007002804D4FFE7049800F008FD06E0049953
:200F40002822885CFE2318408854FFE700E0FFE700E0FFE7FFE75CE708B080BDA01320208B
:200F600080B58EB00C900B910A9209930020079005900B98002803D1FFE74948039002E0B7
:200F80000B980390FFE7039806903420FFF798F807900798002803D1FFE70C200D907BE0EE
:200FA00006980069411E8841079908740A980799486109980799886107990020C860079949
:200FC00088600799C8610799086206990968079A516007998862079908630799C8620698F7
:200FE0000069002813D1FFE701200021032201F0CCF80799886007988068002806D1FFE786
:20100000079800F0A3FC0C200D9045E0FFE702F09BF9411E481E814104A801700078C00765
:20102000002803D0FFE702F08BFCFFE7069801898A08079B0068019300901A481A4902F0D1
:201040001BF808900898012805D1FFE70799086802F0E6F911E007988068002805D0FFE724
:201060000798806802F0F6F9FFE7079800F06EFC002007900C200590FFE707980C9908601F
:2010800004A80078C007002803D0FFE7FFF76AFAFFE705980D90FFE70D980EB080BDC0467E
:2010A0003813202015380000F639000010B582B0019002F0F5FB41490868401C0860404879
:2010C000006800280DD1FFE701983D4908603B480068012803D1FFE701F044FB00E0FFE771
:2010E00014E03848006800280ED1FFE734480068C06A0199C96A884204D8FFE701983049AE
:20110000086000E0FFE700E0FFE7FFE72E480168491C0160006801994864FFE7FFE701983D
:20112000C06A2A490968884205D9FFE70198C06A26490860FFE7FFE7FFE70198C16A1422CD
:201140001046484322490818406800900098019B986000988068019BD8600198001D009B1A
:201160009B6858600198001D009B9860019BDC6A10466043081858610198C06A424388588F
:20118000401C8850FFE7FFE702F068FA0D48006800280FD0FFE7FFE709480068C06A0199EE
:2011A000C96A884203D2FFE702F086FB00E0FFE7FFE700E0FFE702B010BDC0466413202056
:2011C000501320209813202070132020741320200010202080B586B0059002F061FB0598BC
:2011E000002804D1FFE73F480068019002E005980190FFE7019804900498002803D1FFE7EB
:2012000072B6FFE7FEE70498001D01F011FF002801D1FFE700E0FFE70498806A002805D0F8
:20122000FFE70498183001F003FF00E0FFE70498011D2D4802F04EF800200390FFE7039890
:20124000002814DCFFE70498039940186421405C012807D1FFE704980399411864220020C1
:201260008854FFE7FFE70398401C0390E7E702F0F5F91E480068002807D0FFE702F010FBDE
:2012800002F04AF902F0EAF900E0FFE7049815490968884222D1FFE71448006800280BD0A9
:2012A000FFE714480068002803D0FFE772B6FFE7FEE702F001FB10E00B48006802900298EB
:2012C0000B490968884204D1FFE706490020086002E000F0AFF9FFE7FFE700E0FFE706B02B
:2012E00080BDC04650132020F412202098132020641320206C13202080B586B00590002041
:20130000039002F0CDFA0598002804D1FFE73A480068019002E005980190FFE70198049063
:201320000498002803D1FFE772B6FFE7FEE70498001D01F07DFE002801D1FFE700E0FFE771
:201340000498806A002805D0FFE70498183001F06FFE00E0FFE729490868401C08600498DA
:2013600025490968401A41424841029024480068002813D0FFE7029800280FD0FFE70498AE
:20138000011D214801F0A6FF20490868401C0860049802F0DFF90120039009E019490868BE
:2013A000401E0860049802F0D5F902F0B5F8FFE702F054F90398012804D0FFE7049801F03C
:2013C00079FDFFE70E480068002813D0FFE704980949096888420BD1FFE70D480068002832
:2013E00003D0FFE772B6FFE7FEE702F065FA00E0FFE7FFE706B080BD5013202070132020EB
:20140000981320206413202008132020681320206C13202083B00290019100920298001FB3
:20142000029002990120000608600298001F02900198029908600298001F029002992D48AE
:2014400008600298001F029002992B4808600298001F02900299294808600298001F029059
:201460000299274808600298001F02900299254808600298001F02900098029908600298BF
:20148000001F02900299204808600298001F029002991E4808600298001F029002991C4832
:2014A00008600298001F029002991A4808600298001F02900299184808600298001F02901B
:2014C0000299164808600298001F02900299144808600298001F02900299124808600298BF
:2014E000001F029002990220C0430860029803B07047C04649350000121212120303030337
:201500000202020201010101111111111010101009090909080808080707070706060606C3
:20152000050505050404040486B005903D480490FFE7049800680599884205D2FFE7FFE7AE
:20154000049800680490F4E70498364988421FD0FFE704990020344A914202900FD3FFE7F6
:2015600004993148314A82180120002300939142019001D90098019001980290FFE7029857
:20158000C007002803D1FFE772B6FFE7FEE7FFE704980390039804994968401805998842F1
:2015A00009D1FFE70598426804994868801848600498059000E0FFE7059803900398059937
:2015C000496840180499096888421AD1FFE7049800681749096888420DD0FFE704980068F3
:2015E000426805994868801848600498006800680599086004E00E48006805990860FFE7B3
:2016000004E00498006805990860FFE704980599884204D0FFE705980499086000E0FFE7D0
:2016200006B070471C13202000002020FF0B00005413202080B586B03B480068002804D08B
:20164000FFE73A49012008606CE0384900200860FFE737490868006B0590364804900868EB
:2016600000680968096B884218D9FFE7059800683049884212D1FFE7059840682D498842E6
:201680000CD1FFE7059880682A49884206D1FFE70598C0682749884209D0FFE72448016875
:2016A000343103910068039900F0B9FDFFE7FFE7FFE7214800680290FFE702981421414339
:2016C0001E48405800280BD1FFE70298002803D1FFE772B6FFE7FEE70298401E0290ECE756
:2016E000FFE70298142141431448401801900199486840684860019948680831884204D1B0
:20170000FFE70199C8684860FFE701984068C06807490860FFE7029807490860FFE7044800
:201720000068FFE706B080BD6C132020A813202050132020A5A5A5A5741320200010202060
:2017400010B584B003900398029000200190039800286FD0FFE7029838490968884203D00E
:20176000FFE772B6FFE7FEE70298006D002803D1FFE772B6FFE7FEE70299086D401E0865D9
:201780000299C86AC96C884252D0FFE70298006D00284BD1FFE70298001D01F049FC00282F
:2017A00001D1FFE700E0FFE70299C86CC8620299CA6A0A20801A8861FFE7FFE70298C06AA6
:2017C0001F490968884205D9FFE70298C06A1C490860FFE7FFE7FFE70298C16A142210460E
:2017E000484318490818406800900098029B986000988068029BD8600298001D009B9B68CE
:2018000058600298001D009B9860029BDC6A10466043081858610298C06A42438858401C8C
:201820008850FFE7FFE70120019000E0FFE700E0FFE700E0FFE7019804B010BD5013202043
:20184000741320200010202010B586B00B9C0A9C099C089C05900491039202930A98006B7F
:2018600003998900A52202F07BF80A98016B039880004018001F01900198072188430190C9
:2018800001A800784007002803D0FFE772B6FFE7FEE70498002820D0FFE700200090FFE7DC
:2018A00000980F2814D8FFE70498009A805C0A9989183422885404980099405C002801D134
:2018C000FFE705E0FFE7FFE70098401C0090E7E70A9943220020885400E0FFE708980A2883
:2018E00003D3FFE772B6FFE7FEE708980A2803D3FFE70920089000E0FFE708980A99C862B7
:2019000008980A99C8640A98001D02F030F80A98183002F02CF80A98006108990A20401A57
:201920000A9988610A98406201980599029AFFF771FD0A9908600998002804D0FFE70A9870
:201940000999086000E0FFE706B010BD80B586B00590059804900598002868D0FFE7049884
:20196000083804900498039003990020314A914202900FD3FFE703992E482F4A82180120BA
:20198000002300939142019001D90098019001980290FFE70298C007002803D1FFE772B6AE
:2019A000FFE7FEE70398C079C009002803D1FFE772B6FFE7FEE703980068002803D0FFE706
:2019C00072B6FFE7FEE70398C079C00900282CD0FFE703980068002825D1FFE7039948681A
:2019E0000122D2079043486003984068082808D3FFE70498083003994968083901F0D2FE19
:201A0000FFE701F09DFF039842680C490868801808600398FFF788FD09490868401C0860AD
:201A2000FEF7A0FD00E0FFE700E0FFE7FFE706B080BDC04600002020FF0B00007813202094
:201A40009013202080B588B0079006913048006804903048006803902F48006802902F4839
:201A60000068001D01F0E4FA002801D1FFE700E0FFE70798401C002820D1FFE706980028AC
:201A80001CD0FFE7FFE7274948680190019A234803689A60019A92680368DA600268121D9F
:201AA000019B9B685A600268121D019B9A60006841610868401C0860FFE726E00498079938
:201AC00040180590059815490968486005980499884207D2FFE7029810490968091D00F0C8
:201AE000DFFF11E003980D490968091D00F0D8FF05980B490968884204D2FFE705980849F2
:201B0000086000E0FFE7FFE7FFE708B080BDC0469C132020281320202C1320205013202044
:201B200084132020F412202080B586B00590049101200390059802900298002803D1FFE794
:201B400072B6FFE7FEE70298002852D0FFE70298C06B00284DD0FFE702980190C16B002061
:201B6000C04301F05BFB0199096C884241D3FFE701F096FE02990868CB6B0A6C5A438018D7
:201B8000886002990020886302990868486002990868CA6B531E0A6C5A438018C8600299E5
:201BA0004422FF2088540299452288540498002813D1FFE70298006900280CD0FFE70298D1
:201BC0001030FFF757F8002803D0FFE701F074FE00E0FFE700E0FFE708E00298103001F0FD
:201BE00026FD0298243001F022FDFFE701F036FD02E000200390FFE70398002803D1FFE7C2
:201C000072B6FFE7FEE7039806B080BD80B586B0059004910392002002900598806B01904E
:201C20000598006C002810D1FFE705980068002809D1FFE705988068FFF782FD0290059995
:201C40000020886000E0FFE743E00398002817D1FFE7059A50680499126C01F08DFD059977
:201C60000A6C486880184860059948688968884204D3FFE705990868486000E0FFE727E0B5
:201C8000059AD0680499126C01F076FD05990A6CC868801AC8600599C8680968884206D207
:201CA000FFE7059988680A6C801AC86000E0FFE7039802280AD1FFE70198002804D0FFE7B1
:201CC0000198401E019000E0FFE700E0FFE7FFE7FFE70198401C05998863029806B080BD19
:201CE00010B590B001200F9000200D900C900B900A9009900890FFE708980E2811D8FFE7D5
:201D0000089A2748815C0AA881540899405C002801D1FFE705E0FFE7FFE70898401C0890EC
:201D2000EAE7089A0AA9002088540E90FFE70E98002832DCFFE71B480990002004900790F4
:201D4000069007A806A905AA01F0C8FC049B0998059A0699079C0294019100930AA901F0AB
:201D6000F9F801460E9882000F4881500E9989004058002803D0FFE701200F9002E0002070
:201D80000F90FFE70F98012801D0FFE705E0FFE7FFE70E98401C0E90C9E70F9810B010BD02
:201DA000E6390000012D00003413202080B584B0039001F075FD03984521405C02A9087030
:201DC000FFE7002102A84056012817DBFFE70398406A00280CD0FFE703982430FEF74AFF5F
:201DE000002803D0FFE701F0C9FD00E0FFE700E004E00298401E02A90870E2E703994522DA
:201E0000FF20885401F02AFC01F04AFD03984421405C01A90870FFE7002101A8405601284B
:201E200017DBFFE703980069002810D0FFE703981030FEF71FFF002803D0FFE701F09EFD7D
:201E400000E0FFE70198401E01A9087000E000E0E2E703994422FF20885401F0FFFB04B07E
:201E600080BD704780B586B0059004910598002803D1FFE772B6FFE7FEE70498002803D1CF
:201E8000FFE772B6FFE7FEE701F00AFD204800680290029805994968401A01900498006837
:201EA000401C002803D1FFE7002003902BE0194800680599096888420CD0FFE7029805998A
:201EC0004968884206D3FFE70120039004990020086017E001980499096888420BD2FFE7C4
:201EE000019A04990868801A0860059801F082FC0020039005E004990020086001200390BB
:201F0000FFE7FFE7FFE701F0A9FB039806B080BD9C1320208813202084B0032080020090B9
:201F20002048029002A80078400700280ED0FFE70298C01D02900298072188430290029A8E
:201F400018490098891A40180090FFE7029916480160002141600298009A80180190019805
:201F60000838019001980722D24310400190019A0E48026002685160026811600299039160
:201F80000199039A891A51600068039908600398406807490860039840680649086004B0A1
:201FA0007047C046000020201C13202054132020801320207813202010B588B004460A9887
:201FC000079406910592049303A90870002002900498002803D1FFE772B6FFE7FEE70798BB
:201FE00000282ED0FFE7049800282AD0FFE70598002804D0FFE70698002822D0FFE7059877
:20200000002804D1FFE7069800281AD1FFE7502001900198502803D0FFE772B6FFE7FEE788
:20202000019804980290029946220120885407980699059A03AB1B78029C009401F064F83C
:2020400007E00298002803D1FFE772B6FFE7FEE7FFE7029808B010BD002A49D084468B0786
:202060001CD1830722D1102A08D370B4103A78C978C0103AFBD270BC103238D0042A2CD340
:20208000082A05D30C2A01D308C908C008C908C008C908C092072AD0920F22E00B78037035
:2020A000491C401C521E22D08B07F7D1C30714D18307D8D0121F12D308C903801B0C43806E
:2020C000001D121FF8D20AE008C903701B0A43701B0A83701B0AC370001D121FF4D2121D2F
:2020E00005D00B780370491C401C521EF9D160467047F0B58BB0139C129C119C109C0A908D
:202100000991089207931198002803D1FFE772B6FFE7FEE71298002803D1FFE772B6FFE7D9
:20212000FEE7682005900598682803D0FFE772B6FFE7FEE705981298002820D0FFE71198D6
:2021400000281CD0FFE7129806900698682101F029FB119806990863069965220220885432
:202160000A980999089A079B109C139D069E00270397029601950094FFF766FB02E00020FB
:202180000690FFE706980BB0F0BD10B588B00790069105A80270002004900798002833D0F5
:2021A000FFE707990020C04301F038F8069988422AD3FFE70799069848435021C9438842F9
:2021C00022D8FFE7079906984843039003985030FDF776FF04900498002813D0FFE7049882
:2021E0000290029850300290049946220020885407980699029A05AB1B78049C009400F05F
:2022000083FF00E0FFE707E00498002803D1FFE772B6FFE7FEE7FFE7049808B010BDFEE732
:2022200010B51D491D4C204601F066FB1C49204600F0B6FE1B4801680322D20391430160E8
:202240000169194A0A4011320261416917220A4328218A434261426801210A4043688B4349
:202260009A18426002684B0413430360C2683023134340229343C360C2680223134305229E
:202280009343C360C2680F231B021343C36002680A43026010BDC046F0390000008010406E
:2022A000C0390000009110400000FFFF10B51D491D4C204601F020FB1C49204600F070FE17
:2022C0001B4801680322D203914301600169194A0A4011320261416917220A4328218A4300
:2022E0004261426801210A4043688B439A18426002684B0413430360C268302313434022B1
:202300009343C360C2680223134305229343C360C2680F231B021343C36002680A430260F4
:2023200010BDC046F239000000001040CA390000001110400000FFFF10B51D491D4C2046F3
:2023400001F0DAFA1C49204600F02AFE1B4801680322D203914301600169194A0A40113280
:202360000261416917220A4328218A434261426801210A4043688B439A18426002684B0475
:2023800013430360C2683023134340229343C360C2680223134305229343C360C2680F2335
:2023A0001B021343C36002680A43026010BDC046F439000000005040D43900000011504030
:2023C0000000FFFF80B584B00390029101F0B8FA684600F043FF0190009800282ED1FFE7B7
:2023E000029800280CD1FFE703980199884207D8FFE7FEF7B7F80398019900F083FD1CE04F
:202400000298002807D0FFE70F4800680068414248410290FFE70D4800680399019A891AFB
:20242000029A00F073FBFEF79DF8002803D1FFE701F042FA00E0FFE7FFE702E0FEF792F8FC
:20244000FFE704B080BDC04630132020A013202080B586B005900598049001F071FAFFE7B6
:202460000498C06A002835D0FFE70498C06A0390039800680499C862039800690290029830
:202480004068002805D0FFE70299086849680860FFE702980068002805D0FFE70299486877
:2024A00009684860FFE70398806801900198006800280BD0FFE70398C068002806D0FFE778
:2024C000019801680398C0688847FFE70298FFF73DFAC5E7FEF746F806B080BDF0B58BB009
:2024E000119C109C0A9009910892079308988000FDF7E6FD05900598002815D0FFE7682077
:20250000FDF7DEFD06900698002808D0FFE70698682101F047F905980699086303E0059853
:20252000FFF714FAFFE702E000200690FFE70698002812D0FFE706986521002747540A981D
:202540000999089A079B109C119D069E0397029601950094FFF778F9FFE706980BB0F0BDE8
:2025600080B586B00590049103920293002001900498059948600598006104980399884209
:2025800013D8FFE703980299401A05998969884203D3FFE70120019006E0114800680599CD
:2025A000091D00F07DFAFFE714E003980299884208D2FFE704980299884203D3FFE7012016
:2025C000019006E0054800680599091D00F068FAFFE7FFE7019806B080BDC04624132020E4
:2025E0003013202080B582B001901B480068019940180090009819490968884203D9FFE71C
:2026000072B6FFE7FEE700981449096888421BD1FFE713480068002803D1FFE772B6FFE712
:20262000FEE70198002803D1FFE772B6FFE7FEE701F036F90B490868401C086001F00EF8A8
:202640000198401E019000E0FFE7019A024908688018086002B080BD9C1320208413202021
:202660006C1320209413202080B582B01848006801900198C06A1749884203D0FFE772B626
:20268000FFE7FEE70198806B1349884203D0FFE772B6FFE7FEE711490868FF2213041843BC
:2026A000086008681206104308600D4900200090086000F0ADFB00980A49086001F038F9F4
:2026C000FEF7B8FF00F040FF009802B080BDC04608ED00E0813700005131000020ED00E096
:2026E0001CED00E05813202082B0012001906946087017480068002804D0FFE769460020C3
:20270000087021E013480068002804D0FFE769460020087017E010480068002804D0FFE7BB
:202720006946002008700DE00C4800680C490968491E884204D1FFE769460220087000E0CE
:20274000FFE7FFE7FFE7FFE76846007802B07047E0122020A813202094132020F4122020F8
:202760006413202080B584B000200390FFE7039809280CD8FFE703981421414317484018FF
:2027800000F055FFFFE70398401C0390EFE70C48019000F04CFF0B48029000F048FF0A4821
:2027A00000F045FF094800F042FF094800F03FFF01990298074A11600749086004B080BD45
:2027C000B8122020CC122020E012202008132020F4122020281320202C13202000102020B4
:2027E00080B588B00020079000F024F917480068002820D0FFE7002003900690059006A857
:2028000005A904AA00F07EFF039B049A0598069902910190092000900D480E4900F09AFB69
:2028200001460D4801600068002803D0FFE701200790FFE700E0FFE70798002803D1FFE76D
:2028400072B6FFE7FEE7079808B080BDA013202033380000DE390000A4132020F8B5451C77
:2028600000780023082B32D02F78C2070CD16A780F241440E41C122C0BD102242E57F4B267
:20288000002E08D4EE1C0EE06D1C4A1C0F7011461AE0AE1C08E02E1DED7800957F252C4070
:2028A000009DED012C1912343D0112095219094DAA420ED0D243002C05D08D5C4F1C0D7037
:2028C000641E3946F7E7354640085B1CCAE72846C5E7F8BDFF0F000082B000200090174810
:2028E0000068002803D0FFE701200090FFE714480068C06A002803D0FFE70020019019E07F
:2029000010480068022803D3FFE70020019010E00098002803D0FFE70020019008E00A480C
:2029200000680190094801680198401A0190FFE7FFE7FFE7019802B07047C04674132020DF
:202940005013202000102020841320209C13202080B584B00390029101920398002803D105
:20296000FFE772B6FFE7FEE7FFE7039840680090009813490A68D061009880680A681062CA
:2029800008681830009A9268506008681830009A906003980968886203990868401C086033
:2029A000FFE70198002804D0FFE70020C0430290FFE702980199FFF745F804B080BDC046BD
:2029C0005013202080B584B0039000F05DFF0290039802994862012001A900F0BFF9FFE741
:2029E0000298806A002806D0FFE70298806A012100F007FEF4E70298FFF72AFD0298007C2C
:202A0000C00700280CD1FFE7029880680023009319461A46FDF7A2FE0098FEF7DBFB06E030
:202A20000298FEF793FF0020FEF766FCFFE704B080BD000080B584B000F032FF11480068DC
:202A4000002819D1FFE71048029000F0F0FD0F48039000F0ECFD029903980D4A11600D49A0
:202A60000860002000900C4A0C4B0A200C21FFF7A3FA0449086000E0FFE700F0EFFD04B09C
:202A800080BDC046A013202090122020A41220202413202030132020C810202010122020B4
:202AA00084B0039002910298006800900098401C002804D1FFE703980069019010E0039833
:202AC00008300190FFE70198406800680099884205D8FFE7FFE7019840680190F3E7FFE700
:202AE000019840680299486002984168886001980299886002980199486003980299086190
:202B000003990868401C086004B0704780B584B00390029101920398009000F0C1FE0098E6
:202B200044214056401C002805D1FFE70099442200208854FFE7009845214056401C002861
:202B400005D1FFE70099452200208854FFE700F085FD0098806B002807D1FFE70098243010
:202B60000299019AFFF7F4FE00E0FFE70098FFF71DF904B080BD000080B582B0FFF7B0F8D7
:202B800001900198012804D1FFE7FFF729FE019000E0FFE7019801280DD1FFE772B60C4AAF
:202BA0000020C14311600B4A012111600A490860FFF75AFD08E00198401C002803D1FFE7D1
:202BC00072B6FFE7FEE7FFE70448006802B080BD84132020981320209C132020EC390000A3
:202BE0008446830706D0002A29D001700130013A8307F8D1042A1CD30906090E0B021943AC
:202C00000B041943082A10D30B00102A09D370B40F24161B22400C000D003AC0103EFCD8F4
:202C200070BC082A01D30AC0083A042A01D302C0043A002A03D0013A8154013AFCD2604698
:202C40007047000085B00490039100200290039800281FD4FFE7039801281BDCFFE70498D5
:202C6000002804D1FFE70E480068009002E004980090FFE7009801900198002803D1FFE78B
:202C800072B6FFE7FEE70198039989004018806D029002E000200290FFE7029805B070472C
:202CA00050132020134C144D144E204600F092FD07462846394600F0E7FB3046394600F079
:202CC000E3FB204600F086FD07462846394600F0DBFB3046394600F0D7FB204600F07AFDB9
:202CE00007462846394600F0CFFB3046394600F0CBFBDAE7000050400080104000001040C4
:202D000080B582B00190FFE700F0ACF8FFF7E4FD0090009802281BD3FFE700F011FE0D48F0
:202D200000680D490968884203D2FFE772B6FFE7FEE7FFF7D1FD00900098022804D3FFE719
:202D40000098FDF7C7FE00E0FFE7FDF70BFC00E0FFE7D9E7841320209C13202080B584B0AC
:202D60000290019100F090FD00900298002807D0FFE70298012803D0FFE71620039017E067
:202D80000098C0690199086002980099C861029800280AD1FFE70098006A002805D0FFE7AC
:202DA0000020C043FFF70EFEFFE700200390FFE7039804B080BD0000F0B587B000F07AFCA1
:202DC00001AC204600F052FD012500956946204600F0F1FA06462046294600F0E4FB0746B9
:202DE00037432902204600F090FD384300D0FEE7064A06A801A90023FEF7B2F8002800D0B9
:202E0000FEE7FFF7B9FE002007B0F0BDA52C000080B50C487D210902016001680A4800F08D
:202E2000FDF90A4908600A495E200860094904200860094A00201060084A094810600720AD
:202E4000086080BD60132020FFFFFF007C1320205C13202010E000E018E000E014E000E023
:202E6000FF7C000080B582B0FFE70F480068002818D0FFE700F014FD0C48C068C06801909F
:202E80000198001D00F0D4F809490868401E086005490868401E086000F0E0FB019800F060
:202EA00009F8E2E702B080BD68132020081320206413202080B582B0019001986521405CD9
:202EC000002808D1FFE70198006BFEF73FFD0198FEF73CFD14E001986521405C012804D162
:202EE000FFE70198FEF732FD09E001986521405C022803D0FFE772B6FFE7FEE7FFE7FFE7E9
:202F000002B080BD80B584B00390029110480068C068C06801900198001D00F089F80198D2
:202F20002821405C4007002806D5FFE701980399029A00F025FA06E001992822885CFE23CD
:202F400018408854FFE70198016A884704B080BD24132020F0B58BB0129C119C109C0A909B
:202F6000099108920793002006900A980999089A079B109C119D129E06AF039702960195BE
:202F80000094FFF7B6F805900598002804D0FFE70598FEF78BF800E0FFE706980BB0F0BD04
:202FA00070B511221302C218C4580125AC43C4500C888D7825438C882C43C558084E2E4020
:202FC000084D25407419C4508879CB790343087A184351687E23994318400818506070BDA3
:202FE000E798FDFF18670000B0B50A480A4941600A4A51600A4B59600A4C61600A4D6960E2
:203000000A4901601160196021602960102000F0BBFCB0BD00080A40030000B100280A404C
:203020000008504000081040008810400100002682B0019001980069009001998868496811
:2030400088600199486889684860009840680199884205D1FFE7019880680099486000E0A3
:20306000FFE701990020086100990868401E08600098006802B07047B0B588B00D9C0C9C21
:20308000079006910592049307980699059A049B0C9C0D9D01950094FFF720FA039003989E
:2030A000002806D0FFE70398FEF700F80120029003E00020C0430290FFE7029808B0B0BDB4
:2030C00080B584B003900398002804D1FFE70D480068009002E003980090FFE7009802900C
:2030E0000298002803D1FFE772B6FFE7FEE700F0D7FB0298406D019000F0B0FA019804B0E0
:2031000080BDC0465013202010B584B0069C039002910192684603700298002803D1FFE7D8
:203120000698006003E0019806990860FFE703980699C86302980699086406980121FEF769
:20314000F3FC009806994C22885404B010BD0000EFF309800E4A1168243808607346F8C00D
:2031600044464D4656465F46F0C072B6FEF762FA62B6074A116808681430F0C8A046A946A5
:20318000B246BB4680F309882438F8C81847C0465013202080B582B0019000910198006C80
:2031A000002817D0FFE701990A6CC8688018C8600199C8688968884204D3FFE701990868CE
:2031C000C86000E0FFE70098019AD168126C00F0D3FAFFE702B080BD80B582B0FFE70D48E3
:2031E0000068006800280BD0FFE70A480068C0680068019001980021C943FFF783FEEEE729
:20320000044A106800900449086810600098086002B080BD24132020301320201CB50A0067
:2032200017D000230124E407A04200D20400944201D95200FBE790425B41904200D3801A2B
:20324000914201D25208F6E719000200080011001CBD01000020FEF704FE1CBD80B582B02C
:20326000019000F03FFB009000980A490968884206D2FFE7FFF7B0FF01990120086003E074
:20328000019900200860FFE7009802490860009802B080BD4C13202070B50A480A4C844222
:2032A0000CD00A4D0A4EB54208D02A686968501C12789200A25890470835F4E700BF00BF62
:2032C00070BDC0461C3A0000103A0000243A0000343A000083B00290019102984068009026
:2032E0000098019948600098806801998860019800998968486001980099886002980199D9
:20330000086102990868401C086003B07047000082B001900B48006800684142484101997F
:20332000086001980068002806D1FFE705480068C0680068009002E000200090FFE700985A
:2033400002B070472413202081B00B480068002803D1FFE7012000900BE008480068002843
:2033600003D1FFE70220009002E000200090FFE7FFE7009801B07047981320206C132020D9
:2033800080B584B0039002910192FFE70398029B81695918019AFFF7E3F8002809D0FFE73F
:2033A000039881690298401802900398016A8847ECE704B080BD84B0029001910198006812
:2033C00000900098092804D8FFE70098002803D1FFE71620039005E00098029908600020EF
:2033E0000390FFE7039804B07047000080B582B0019000910198002803D1FFE772B6FFE73C
:20340000FEE70198054909681831FFF749FB00980121FEF717FB02B080BDC0465013202093
:2034200080B584B0039002910398002804D1FFE707480068019002E003980190FFE700F053
:203440002FFA02980199486500F008F904B080BD5013202080B582B0019001980090009824
:20346000002803D1FFE772B6FFE7FEE700984621405C002804D1FFE70098FEF767FA00E02B
:20348000FFE702B080BD00000A4A80180268120605D50268120602D502681206F6D4816188
:2034A0000168C90705D00168C90702D00168C907F6D1704708110000084882210160084A7D
:2034C0004260016642668161C26181214165012080030449086008637047C0463C8042402F
:2034E00082000400A0120A4080B582B000F051FA0190FCF72FFF002805D0FFE701200007EB
:203500000449086000E0FFE7019800F046FA02B080BDC04604ED00E0094800680068002858
:2035200005D1FFE707490020C043086006E004480068C068006803490860FFE77047C04673
:20354000281320208413202081B00020009009480068401C002803D0FFE772B6FFE7FEE74F
:2035600072B6FFE70098002801D1FFE7FAE701B07047C0465813202080B582B0019000F0E3
:203580008FF90198806B0199C96B884203D1FFE70120009002E000200090FFE700F05EF85E
:2035A000009802B080BD83B0019000910098002807D0FFE70098012803D0FFE71620029070
:2035C00005E000980199086100200290FFE7029803B0704780B584B00390039880690290BD
:2035E0000298801E017801A801700078642803D1FFE700F0DDF802E072B6FFE7FEE704B0F4
:2036000080BD80B584B00390029103980068019003980069019988620298002805D0FFE745
:203620000398416880688847FFE704B080BD81B000900099084608304860009A0020C14372
:203640009160009A11460831D160009A1146083111610099086001B0704700000948006860
:20366000002803D1FFE772B6FFE7FEE705480168491E01600068002802D1FFE762B6FFE7B0
:203680007047C0465813202080B582B0019000F007F90198806B002803D1FFE701200090C3
:2036A00002E000200090FFE7FFF7D8FF009802B080BD000080B5FFF797FCFFF7FDFE00F09F
:2036C000C7F8FEF739FEFEF7F1FDFEF7A9FD02482C210022425480BD6012202083B002907E
:2036E0000191009202990548086001990448086000998020086003B07047C0464011202066
:20370000000C202083B002900191009202990548086001990448086000998020086003B082
:203720007047C046A8112020000E2020084880F3088800BF00BF00F03AF9002801D0FFF7A2
:20374000ABFD0020FFF738FB012000F029F9C0460080202080B582B0019001980021FFF7D7
:2037600071FA00900098002804D0FFE70098FEF7EDF8FFE702B080BD80B5FEF76DFC80BDBD
:2037800004207146084203D0EFF30980044B1847EFF30880024B1847C046C046C046C046EA
:2037A000D53500000A46002180B5FFF719FA80BD074A1168086804C8022181F3148820308A
:2037C00080F30988BFF36F8F1047C046C046C04650132020064940180168490705D5016886
:2037E000490702D501684907F6D4C069C0B270470811000081B0009004480068009908603E
:20380000034800680099486001B07047881320209C13202080B584B00390039801900198C1
:2038200041698069884702900298FFF7CBF804B080BD80B584B00390FFE701A8FFF768FD6A
:20384000029002980199FEF7BDFDFDF7DBFAF4E70448002101600448016803229143016072
:203860007047C04608030B4000010B4010B581B00090009803490CC90CC01CC91CC00020FD
:2038800001B010BD3813202080B582B000F020F801900198FFF714FC0090009802B080BD69
:2038A00072B604490868401C0860BFF34F8FBFF36F8F7047581320200120000703490860E1
:2038C000BFF34F8FBFF36F8F7047C04604ED00E081B0034800680090009801B07047C046A0
:2038E0005013202081B0034800680090009801B07047C0469C13202010B501221203831824
:203900000C789C604978815010BD82B001900091009801998860002002B0704780B50B464B
:2039200003214258C11D1846FFF726FF80BD000062B6BFF34F8FBFF36F8F64DF00BFC046D5
:2039400002490868401C08607047C0466C13202080B50A46032141581046FFF723FF80BD7F
:203960000B4611461A4680B5FFF73AF980BD81B0009000990020086101B0704701490120EE
:2039800008607047A8132020811E091F00BFFCD27047EFF3108072B6704780F310887047EF
:2039A00000F001F8FEE700BF7047BFE670470120704700000000000000000000000000008F
:2039C000000018000000003000000000180000000030000000001800000000300000546D4E
:1839E00072205376630049444C4500000900000008000800080078005A
:2039F800004B01000004040085007BAA000000019F04015F28FFF0005D2800001D390000BB
:203A1800513900000200000038130000F8390000381320201C3A0000000020200000000065
:00000001FF
